:100000000C9484000C94AC000C94AC000C94480F3D
:100010000C94480F0C94480F0C94AC000C94AC005A
:100020000C94AC000C94AC000C94AC000C94AC00A0
:100030000C94AC000C94AC000C94AC000C94AC0090
:100040000C94C20F0C94AC000C94C1120C94F312DB
:100050000C94AC000C94AC000C94AC000C94AC0070
:100060000C94A4090C94AC003E023E0269026902A1
:100070005A02640238023802380238023802380262
:10008000380238023E0269024E054E0561056105DF
:1000900074058705C005C005C005C005C005C005BD
:1000A000C005C0059A05AD0500000008000201006A
:1000B0000003040700000000000000000102040823
:1000C00010204080010204081020010204081020C2
:1000D00004040404040404040202020202020303EE
:1000E0000303030300000000230026002900000092
:1000F0000000250028002B0000000000240027003D
:100100002A001207BA08231311241FBECFEFD8E02C
:10011000DEBFCDBF11E0A0E0B1E0EAEDF1E302C047
:1001200005900D92A239B107D9F724E0A2E9B1E018
:1001300001C01D92AB31B207E1F711E0C8E0D1E098
:1001400004C02297FE010E941116C230D107C9F7E0
:100150000E9456140C94EB180C940000CF93DF937C
:10016000EC018EE793E09983888326E00E945F127A
:100170008E81823038F061E00E94E41060E08E8170
:100180000E941D1188819981DC01ED91FC9106800E
:10019000F781E02D099597FFF5CFFE01E75BFF4F53
:1001A0001082319610823796118210823297118216
:1001B0001082C35BDF4F19821882DF91CF910895BF
:1001C000CF92DF92FF920F931F93CF93DF93EC01B7
:1001D0008E81823018F060E00E941D118E01075B55
:1001E0001F4FD8011C928D81F12C8430E0F588815D
:1001F0009981DC01ED91FC910480F581E02D099558
:10020000892BE1F1F801C080D12C88819981DC0132
:10021000ED91FC910680F781E02D0995FE01EC0D32
:10022000FD1D8187F80180818F5F80838034F8F223
:10023000FF24F394DCCFF801C080D12C8A819B810C
:10024000DC01ED91FC910680F781E02D0995FE011E
:10025000EC0DFD1D8187F80180818F5F80838034E4
:1002600010F0FF24F3948A819B81DC01ED91FC91D5
:100270000480F581E02D0995892BE9F6FE01E35B09
:10028000FF4F80819181019691838083FF2049F007
:10029000CF5ADF4F888199810196998388838DEFAA
:1002A00002C0F8018081DF91CF911F910F91FF90E3
:1002B000DF90CF90089540E050E02FEF3FEF4617DA
:1002C000B0F4FC01E40FF51F7185272778E0F901F0
:1002D000E170FF2736952795EF2B21F0E1E02E27DF
:1002E000E0EA3E27715099F74F5F5F4FE8CF922FBA
:1002F000832F0895FF920F931F93CF93DF93EC0109
:100300008C01075B1F4FD801FC906F2D0E945B0191
:10031000FE01EF0DF11D918791E09F0DFE01E90FA8
:10032000F11D8187F394F394F801F0828E8182307D
:1003300048F08091C00080648093C00061E08E81AD
:100340000E941D118D81BE01675F7F4F843018F4BC
:100350008881998102C08A819B81DC01ED91FC91A9
:10036000D8014C9150E00280F381E02D09958E81F7
:10037000823038F09091C00096FFFCCF60E00E9480
:100380001D118D81843060F588819981DC01ED91AA
:10039000FC910680F781E02D099597FFF5CFF801D4
:1003A00010820E940C10FE01E75AFF4FDE01AD5A89
:1003B000BF4F2D913C91620F731F811D911D608372
:1003C000718382839383C15BDF4F8881998101961A
:1003D00099838883DF91CF911F910F91FF900895AA
:1003E0008A819B81DC01ED91FC910680F781E02DF3
:1003F000099597FFF5CFD3CF0F931F93CF93DF933B
:10040000EC01FC01E75BFF4F6081062F10E06250BA
:100410000E945B01FE01E00FF11F278130E0322FC7
:1004200022274085242B8217930749F0CF5ADF4FAC
:10043000888199810196998388838FEF54C04A857A
:10044000EAE4F1E08191841769F081E0E235F80790
:10045000C9F7CF5ADF4F88819981019699838883A4
:1004600081E041C050E0FA013197E031F10510F030
:1004700080E039C0EC5CFF4F0C940F166C858B85C7
:100480000E944E148C0184E0169507958A95E1F739
:100490006E858D850E944E1424E0969587952A9549
:1004A000E1F7800F911FC35ADF4F9881981700F72B
:1004B00082E019C06C858B850E944E1414E09695DD
:1004C00087951A95E1F7EFCF6C858B850E944E14C6
:1004D000EACF6C858B850E944E148C016E858D85CC
:1004E0000E944E14DECFDF91CF911F910F9108959E
:1004F000FC01828594819187805882876387E75BBE
:10050000FF4F83E0808308956F927F928F929F9236
:10051000AF92BF92CF92DF92EF92FF920F931F9311
:10052000CF93DF93EC018B016C858B850E944E1479
:100530005C016E858D850E944E147C0133E096959A
:1005400087953A95E1F7482F370127E06222772413
:100550006114710411F041E0480F4B87FE01E75B25
:10056000FF4F83E08083EA0CFB1CC501D12C41E0E6
:1005700050E060E070E08E159F0509F44DC0DC018D
:1005800023E0B695A7952A95E1F7AE7FB170A00F4D
:10059000B11F0D90BC91A02D382F3F70032E02C0CB
:1005A000B695A7950A94E2F7A0FF16C0A0819E0118
:1005B0002A0F311DD9011996CC9019974A015B0178
:1005C0000D2C04C0880C991CAA1CBB1C0A94D2F7E1
:1005D000C8281996CC9216C0A0819E012A0F311D01
:1005E000D9014A015B010D2C04C0880C991CAA1C7E
:1005F000BB1C0A94D2F780941996CC9019978C2042
:1006000019968C92D39437E03D1520F4A081AF5F0A
:10061000A083D12C0196AFCF672819F080818F5F1E
:10062000808310811E5FCE010E947A01812FDF91AD
:10063000CF911F910F91FF90EF90DF90CF90BF90DF
:10064000AF909F908F907F906F900895CF92DF92A0
:10065000EF92FF920F931F93CF93DF93EC018B01E7
:100660006C858B850E944E14F82EE82E6E858D8544
:100670000E944E149C01880F8B87FE01E75BFF4FA1
:1006800083E0808340E050E033272F0D311DAE2DF5
:10069000A40FB0E04F5F5F4FA217B307F4F460817F
:1006A0006D01CC0CDD1CC00ED11ECE01860F911D3C
:1006B000D60111967C91DC0119967C9381E0860F1E
:1006C0008083DE01A80FB11DCD01D6017C91DC0134
:1006D00019967C936E5F6083DACF10811E5FCE0126
:1006E0000E947A01812FDF91CF911F910F91FF908E
:1006F000EF90DF90CF9008950F931F93CF93DF93E8
:10070000EC018B016C858B850E944E14FC01A4E0EA
:10071000F695E795AA95E1F78F709D85FF27EE0F77
:10072000FF1FE00FF11F41E050E060E070E004C007
:10073000440F551F661F771F8A95D2F79F3F29F4F4
:1007400080819181842B952B06C0409550958081A6
:1007500091818423952391838083FE01E75BFF4F82
:1007600086E08083CE010E947A0188E0DF91CF91FC
:100770001F910F910895EF92FF920F931F93CF93C4
:10078000DF93EC018B016C858B850E944E147C01FC
:100790006E858D850E944E14F701FF27EE0FFF1F17
:1007A000E00FF11F91838083FE01E75BFF4F86E03E
:1007B0008083CE010E947A0188E0DF91CF911F9162
:1007C0000F91FF90EF9008956F927F928F929F927A
:1007D000AF92BF92CF92DF92EF92FF920F931F934F
:1007E000CF93DF93EC017B016C858B850E944E14C7
:1007F0008C016E858D850E944E146C01C00ED11E39
:10080000F801B12C07E0A02E41E050E060E070E07C
:10081000EC15FD0509F440C09F01A4E0369527952D
:10082000AA95E1F70E2F0F70CE018A0D911DDC0104
:1008300019968C9190E00B2C02C0959587950A949F
:10084000E2F73327D901AA0FBB1FAE0DBF1D3A0136
:100850004B0104C0660C771C881C991C0A95D2F7C2
:100860009401830180FF06C08D919C911197862988
:10087000972907C0009510958D919C911197802321
:1008800091238D939C93B39437E0732E7B1410F4D3
:10089000A394B12C3196BCCFFE01E75BFF4F86E0FD
:1008A0008083CE010E947A0188E0DF91CF911F9171
:1008B0000F91FF90EF90DF90CF90BF90AF909F90FF
:1008C0008F907F906F900895AF92BF92CF92DF92FA
:1008D000EF92FF920F931F93CF93DF938C01FC0154
:1008E0008485A68415866801F9E4CF0ED11C96E0B4
:1008F000F6019083EB01C80FD11DC80FD11DE12C6B
:10090000F12CB12CBA1489F0F801EE0DFF1D6189AC
:1009100080890E944E14FE01EE0DFF1D918380839D
:10092000B394F2E0EF0EF11CEDCFF601C081CE5F83
:10093000C8010E947A018C2FDF91CF911F910F91F6
:10094000FF90EF90DF90CF90BF90AF9008956F929F
:100950007F928F929F92AF92BF92CF92DF92EF924F
:10096000FF920F931F93CF93DF931F92CDB7DEB704
:100970003C018B01FC01E55BFF4F71836083729644
:100980004083DC0115968C911597843018F48D9175
:100990009C9103C0F30182819381DC01ED91FC9174
:1009A0000480F581E02D4983099549818823C9F0A8
:1009B0006301BAE4CB0ED11CF601908193012B5A4E
:1009C0003F4F7901891779F080830E940C106B5F8B
:1009D0007F4F8F4F9F4FD7016D937D938D939C9346
:1009E000139780E0CEC049830E940C10F7018080ED
:1009F0009180A280B3804981681579058A059B059D
:100A000080F3D6011C92C30149830E94E000B82EF6
:100A1000F3018087F6E0F8170CF0B2C0D301199605
:100A20009C91199714968C919813DBCFC3010E9467
:100A3000FC01F82E4981882371F0BFEF8B1739F044
:100A4000682FC3010E947802C3010E947A01F3015A
:100A5000F0868F2D96C049830E940C10F301ED5A49
:100A6000FF4F20813181620F731F811D911D3696CA
:100A70006083718382839383D30118961C921897A5
:100A80001A96CC90D12CF60131974981E031F105CD
:100A900008F076C0EC5BFF4F0C940F16B801C30151
:100AA0000F90DF91CF911F910F91FF90EF90DF900A
:100AB000CF90BF90AF909F908F907F906F900C944D
:100AC0008402B801C3010F90DF91CF911F910F9164
:100AD000FF90EF90DF90CF90BF90AF909F908F905E
:100AE0007F906F900C942603B801C3010F90DF91A3
:100AF000CF911F910F91FF90EF90DF90CF90BF901B
:100B0000AF909F908F907F906F900C947C03B80172
:100B1000C3010F90DF91CF911F910F91FF90EF9044
:100B2000DF90CF90BF90AF909F908F907F906F900D
:100B30000C94BB03B801C3010F90DF91CF911F91BB
:100B40000F91FF90EF90DF90CF90BF90AF909F906C
:100B50008F907F906F900C94E403B801C3010F90C5
:100B6000DF91CF911F910F91FF90EF90DF90CF9089
:100B7000BF90AF909F908F907F906F900C94640483
:100B80008B2D0F90DF91CF911F910F91FF90EF90E0
:100B9000DF90CF90BF90AF909F908F907F906F909D
:100BA00008950F931F93CF93DF93C82F60E081E0E8
:100BB00092E00E94020F0E94CB147093BC016093DC
:100BC000BB0160E08FEE91E00E94020F0E94CB1407
:100BD0007093BE016093BD0160E08DED91E00E94D5
:100BE000020F0E94CB147093C0016093BF0160E0BC
:100BF0008BEC91E00E94020F0E94CB147093C20113
:100C00006093C10140E060E081E092E00E94A20EAA
:100C10000E94CB147093C4016093C30140E060E074
:100C20008FEE91E00E94A20E0E94CB147093C60139
:100C30006093C50140E060E08DED91E00E94A20E5E
:100C40000E94CB147093C8016093C70140E060E03C
:100C50008BEC91E00E94A20E0E94CB147093CA010B
:100C60006093C901CC2309F462C040E060E082EAED
:100C700091E00E94520B8091C2018F938091C1013B
:100C80008F938091C0018F938091BF018F9380914A
:100C9000BE018F938091BD018F938091BC018F9392
:100CA0008091BB018F930AE311E01F930F93C2E978
:100CB000D1E0DF93CF930E941A16BE0182EA91E041
:100CC0000E94A41341E060E082EA91E00E94520B8E
:100CD0008091CA018F938091C9018F938091C8013F
:100CE0008F938091C7018F938091C6018F938091DC
:100CF000C5018F938091C4018F938091C3018F931D
:100D00001F930F93DF93CF930E941A168DB79EB750
:100D100048960FB6F8949EBF0FBE8DBFBE0182EA03
:100D200091E0DF91CF911F910F910C94A413DF916B
:100D3000CF911F910F9108950F931F93CF93DF933E
:100D400080E00E94D105E3ECF1E0ABEBB1E080E0A4
:100D500090E060E070E021913191620F731F2D915E
:100D60003D91820F931F21E0EB3CF207A1F777FF43
:100D700002C06D5F7F4F8B011595079515950795FF
:100D800097FD0396EC01D595C795D595C79540E09D
:100D900060E082EA91E00E94520B4AE050E0B80124
:100DA00082EA91E00E94461441E060E082EA91E02C
:100DB0000E94520B4AE050E0BE0182EA91E00E949C
:100DC000461482E090E090931B0180931A011093E7
:100DD0001D0100931C01D0931F01C0931E0180913F
:100DE0000A010E9453119093210180932001809168
:100DF0000C010E9453119093230180932201809152
:100E00000E010E945311909325018093240140E12B
:100E10006AE171E083E192E0DF91CF911F910F9140
:100E20000C94A7048F92AF92CF92EF920F9382E02F
:100E300080931702109218028093190288EE93E0B3
:100E4000909367028093660226E04BE06EE081E0BB
:100E500092E00E94410D26E04BE06FE08FEE91E0C2
:100E60000E94410D26E04BE060E18DED91E00E9493
:100E7000410D26E04BE061E18BEC91E00E94410DD9
:100E80001F921F9283E08F9337E0832E46E0A42EBB
:100E900055E0C52E64E0E62E00E021E042E067E286
:100EA00082EA91E00E94980C0F900F900F900F91A2
:100EB000EF90CF90AF908F900895EF92FF920F93A5
:100EC0001F93CF93DF9340E05BE460E070E083E149
:100ED00092E00E94AE0061E082E00E94E410CAE06D
:100EE000D1E002E111E061E0F80180810E94E410AC
:100EF0008881229662E00E94E41061E0F80180811E
:100F00000E5F1F4F0E941D11F1E0C231DF0759F73C
:100F100020E042E060E182EA91E0DF91CF911F9111
:100F20000F91FF90EF900C94260D8091A10290E01C
:100F30002091A202821B910908952091A202809122
:100F4000A102281750F4E22FF0E0ED55FD4F80810B
:100F500090E02F5F2093A20208958FEF9FEF0895F6
:100F6000E091A2028091A102E81730F4F0E0ED5583
:100F7000FD4F808190E008958FEF9FEF08950895D1
:100F8000CF92DF92EF92FF920F931F93CF93DF9355
:100F90007C01CB018A0120917D02222389F0EB01A3
:100FA0006B01C40ED51ECC15DD0569F06991D70122
:100FB000ED91FC910190F081E02DC7010995F3CFEF
:100FC000642F0E947B09C801DF91CF911F910F917F
:100FD000FF90EF90DF90CF900895CF93DF931F9213
:100FE000CDB7DEB7698320917D022223D1F0209115
:100FF0007E02203240F021E030E0FC013383228386
:1010000080E090E015C080917F02E82FF0E0E0588A
:10101000FD4F998190838F5F80937F0280937E0242
:1010200005C061E0CE0101960E947B0981E090E05D
:101030000F90DF91CF910895FC011382128248EE48
:1010400053E060E070E0448355836683778386E5F0
:1010500091E09183808308951092A2021092A102E0
:1010600010927F0210927E020C94BE0881E0809361
:101070007D026093A00210927F0210927E0208957A
:101080000F93062F21E040917E0260E872E080918C
:10109000A0020E94240910927F0210927E021092F8
:1010A0007D020F9108958F929F92AF92BF92CF923F
:1010B000DF92EF92FF920F931F93CF93DF93EC0198
:1010C000F62ED42E48015901EE2019F10E9436085F
:1010D0001E2D143008F013E01150B8F0E881F981AA
:1010E00028E0129FB0011124A501940104C0569577
:1010F0004795379527956A95D2F7CA01B9010190AE
:10110000F081E02DCE010995E7CF60E0CE010E948D
:1011100040084D2D413208F040E22C2D63EA72E088
:101120008F2D0E94DC081092A2028093A102DF9111
:10113000CF911F910F91FF90EF90DF90CF90BF90D4
:10114000AF909F908F900895CF92EF920F931F933F
:10115000C22EE12C00E010E098010E9453081F917C
:101160000F91EF90CF90089521E00C94A40861E0D6
:101170000C94400881E792E00C941C081092300314
:1011800081E080932E0310922D0361E082E10E94A2
:101190001D1161E083E10E941D11E9EBF0E0808107
:1011A0008E7F808380818D7F808388E48093B800E8
:1011B00085E48093BC000895413208F043C09091CB
:1011C00030039111FCCF91E09093300320932E03D4
:1011D0002FEF2093C30210920803240F20930703DC
:1011E00090932F0390912F03880F892B80932F03C7
:1011F00080912D03813061F410922D0380912F0393
:101200008093BB008091BC0083FDF8CF85EC01C0CA
:1012100085EE8093BC00809130038130E1F38091B2
:101220000803841710F44091080329E033E0FB0120
:10123000D9018A2F821B841718F48D918193F9CFDD
:10124000842F089580E008950F93413208F04AC03A
:10125000909130039111FCCF92E090933003009372
:101260002E039FEF9093C30210920803409307034D
:10127000FB0169E073E0DB019A2F961B941718F4C9
:1012800091919D93F9CF10922F0390912F03880F86
:10129000892B80932F0380912D03813061F410926C
:1012A0002D0380912F038093BB008091BC0083FDB0
:1012B000F8CF85EC01C085EE8093BC00222321F09D
:1012C000809130038230E1F38091C3028F3F61F05F
:1012D0008091C302803251F08091C302803341F487
:1012E00083E007C081E005C080E003C082E001C068
:1012F00084E00F910895613298F4209130032430F6
:1013000089F46093E502FC0187EE92E0DC012A2F6C
:10131000281B261718F421912D93F9CF80E008950A
:1013200081E0089582E0089585ED8093BC0080916E
:10133000BC0084FDFCCF10923003089585EC8093AF
:10134000BC001092300308951F920F920FB60F92B7
:1013500011242F933F934F935F936F937F938F93BA
:101360009F93AF93BF93EF93FF938091B900887FD2
:10137000803609F49EC078F5883209F45DC090F497
:10138000803109F456C038F4882309F4F5C0883058
:1013900009F44FC0F5C0883109F44EC0803209F419
:1013A0005FC0EEC0803409F46AC058F4803309F499
:1013B00057C0883309F0E4C08093C3020E949E099D
:1013C000DFC0803509F44FC0883509F45DC088342A
:1013D00009F0D6C0D3C0883909F4C4C0A8F488374E
:1013E00009F467C038F4883609F463C0803709F41B
:1013F00060C0C6C0883809F4B5C0803909F45FC040
:10140000803809F0BDC05BC0803B09F483C038F46C
:10141000803A09F466C0883A09F47CC0B1C0803CC7
:1014200009F4A4C0883C09F4A1C0883B09F487C032
:10143000A7C080912F0310C09091080380910703EB
:10144000981770F5E091080381E08E0F80930803F0
:10145000F0E0E75FFC4F80818093BB0085EC83C0A8
:101460008093C3028BC0E091080381E08E0F8093CC
:1014700008038091BB00F0E0E75FFC4F8083909110
:101480000803809107036BC0E091080381E08E0F91
:10149000809308038091BB00F0E0E75FFC4F8083FE
:1014A00080912E0381116AC081E080932D0384EA2C
:1014B0005EC083E0809330031092C402CFCF80914E
:1014C000C402803208F04EC0E091C40281E08E0F69
:1014D0008093C4028091BB00F0E0EB53FD4F80830A
:1014E000BDCF0E949E098091C402803230F4E09109
:1014F000C402F0E0EB53FD4F10826091C40270E033
:10150000E0912903F0912A0385EC92E0099510926D
:10151000C40236C084E0809330031092E602109239
:10152000E502E0912B03F0912C0309958091E502EF
:10153000811105C081E08093E5021092E702E091FD
:10154000E60281E08E0F8093E602F0E0E951FD4F64
:1015500080818093BB009091E6028091E50298170C
:1015600008F47CCF85E88093BC000AC085EC8093AA
:10157000BC001092300304C01092C3020E94940970
:10158000FF91EF91BF91AF919F918F917F916F915B
:101590005F914F913F912F910F900FBE0F901F9031
:1015A0001895FC0112828FEF8183108213820895B7
:1015B000FC018381882331F0611103C08FEF8183A7
:1015C000089511820895CF93DF93EC016A8381E738
:1015D00092E00E942C0841E06A8181E792E00E943B
:1015E000B40891E0811101C090E09B8381E792E013
:1015F0000E949D0788838B8190E0DF91CF910895B1
:10160000CF93DF93EC018B818823A9F089818095AA
:10161000862388836A8181E792E00E943608688188
:1016200081E792E00E94ED0781E792E00E94B7080F
:10163000282F30E002C020E030E081E090E0232B52
:1016400011F080E090E0DF91CF9108950895089522
:10165000DC01ED91FC910284F385E02D41E00995D8
:1016600081E090E00895FC011382128226E631E0C9
:10167000318320830895DC01ED91FC910084F18594
:10168000E02D6FEF0994DC01ED91FC910284F3856C
:10169000E02D40E0099461E00E94430B80ED97E06B
:1016A0000C947510CF93DF93CDB7DEB728970FB6A4
:1016B000F894DEBF0FBECDBF1D8220E42E8334E13F
:1016C0003F8334E5388719822A8320E12B8320E584
:1016D0002C83FC012781421710F04FEF420FFC01D1
:1016E000308550E0FE01E40FF51F303121F4243045
:1016F00011F4218101C02581260F2068622F2896D0
:101700000FB6F894DEBF0FBECDBFDF91CF910C9422
:10171000430BFC016581262F246025836C600C94AB
:10172000430BCF93DF93EC01423018F08C8188603B
:101730008C834F836887222329F0413019F48C81F0
:1017400084608C8364E670E080E090E00E943B104F
:101750006C8164FD31C0E881F9810284F385E02D5C
:1017600042E063E0CE01099584E991E10E947510A1
:10177000E881F9810284F385E02D42E063E0CE0147
:10178000099584E991E10E947510E881F98102844C
:10179000F385E02D42E063E0CE01099586E990E013
:1017A0000E947510E881F9810284F385E02D42E002
:1017B00062E0CE01099516C06062CE010E94430B23
:1017C00084E991E10E9475106C816062CE010E94F3
:1017D000430B86E990E00E9475106C816062CE0137
:1017E0000E94430B6C816062CE010E94430B84E037
:1017F0008D83CE010E94890BCE010E944B0B82E0AB
:101800008E8366E0CE010E94430BCE01DF91CF9123
:101810000C943B0B21E001C0220F6A95EAF7DC0132
:101820001C962C931C971A965C934E931997ED91E6
:10183000FC910084F185E02D60E00994FC01248591
:10184000222399F081859285009719F4611105C0D2
:1018500006C0019721F4611102C0258701C01586D9
:101860006585CF010E960C94000B08950F931F937E
:10187000CF93DF93EC018C01025F1F4F6B85C80192
:101880000E94E30A019761F461E0C8010E94D80A4E
:101890001C8260E0C8010E94000B81E090E002C061
:1018A00080E090E0DF91CF911F910F9108958F928A
:1018B000AF92CF92EF920F93CF93DF93CDB7DEB776
:1018C000FC016387148615861286118681E0982FA5
:1018D00001C0990F4A95EAF7928B982F01C0990F92
:1018E0002A95EAF7938B982F01C0990F0A95EAF78A
:1018F000948B982F01C0990FEA94EAF7958B982F53
:1019000001C0990FCA94EAF7968B982F01C0990FDE
:10191000AA94EAF7978B01C0880F8A94EAF7808F20
:10192000DF91CF910F91EF90CF90AF908F9008956E
:101930004F925F926F927F928F92AF92CF92EF927F
:101940000F931F93CF93DF9300D01F92CDB7DEB7D5
:101950003C011A894B885C882B834A8369830E94E7
:10196000330B86E791E0F30191838083C3010E96E8
:101970000E94D10A2B814A816981C3010E94570CC0
:10198000A201612FC3010F900F900F90DF91CF91B3
:101990001F910F91EF90CF90AF908F907F906F90AD
:1019A0005F904F900C940A0CFF920F931F93CF936C
:1019B000DF93EC01F62E8C01025F1F4F6A896F29BD
:1019C000C8010E94000B6A8960956F21C801DF91F0
:1019D000CF911F910F91FF900C94000B20E030E00D
:1019E00050E060FF05C0FC01E20FF31F7589572B23
:1019F00066952F5F3F4F2430310599F7413011F440
:101A0000FC014489FC016585652B642B0C94D40C86
:101A10000F931F93CF93DF93EC01142F062F0F70BA
:101A2000423011F440E00AC070E084E0759567959B
:101A30008A95E1F7CE010E94EE0C412F602FCE0176
:101A4000DF91CF911F910F910C94EE0C0F931F9388
:101A5000CF93DF9300D01F92CDB7DEB78C012B83DD
:101A60004A8369830E94360C2B814A816981C801AF
:101A70000F900F900F90DF91CF911F910F910C94C9
:101A8000910BDC0115966C93159716964C9316974F
:101A900070E0FB01E454FF4FE4911796EC93179725
:101AA000FB01E053FF4F649118966C93189740E840
:101AB0005EE360E070E01D964D935D936D937C93C3
:101AC00050970895AF92BF92CF92DF92EF92FF921C
:101AD0000F931F93CF93DF93EC01AF80662311F038
:101AE000BA2C01C0B12CA885B0E0AA0FBB1FAC5125
:101AF000BF4F40E050E0BA01FD0185919491FC0197
:101B000080818A218B1112C08A019B010F5F1F4FB8
:101B10002F4F3F4FCD84DE84EF84F8884C155D0550
:101B20006E057F0538F4B901A801E6CF342F252FC3
:101B3000CB0104C030E020E080E090E0632F722F02
:101B4000DF91CF911F910F91FF90EF90DF90CF9099
:101B5000BF90AF900895CF92DF92EF92FF920F93D4
:101B60001F93CF93DF93CDB7DEB7C054D1400FB6EC
:101B7000F894DEBF0FBECDBF8C01F62E0E940C1074
:101B8000F11016C0F801C184D284E384F4849B016F
:101B9000AC012C193D094E095F0969017A0130ED4C
:101BA000C31637E0D306E104F10410F48189BAC00A
:101BB000F801618772878387948714821382128267
:101BC0001182108261E085810E941D116AEF70E030
:101BD00080E090E00E943B1061E0F80185810E9466
:101BE000E41060E0F80185810E941D1164E170E05D
:101BF00080E090E00E943B10F89461E0F80185815C
:101C00000E941D1188E290E00E94751062E0F801C8
:101C100085810E94E4108AE090E00E94751060E0E7
:101C2000C8010E94620D672B682B692B41F061E0AF
:101C3000C8010E94620D672B682B692B21F4F80103
:101C4000118A78946EC06E01FFEBCF1AFEEFDF0AA7
:101C50009E012F5F3F4F790160E0C8010E94620D35
:101C6000F701608371838283938361E0C8010E94DE
:101C7000620DF7016483758386839783F8E0EF0E26
:101C8000F11CEC14FD0441F778949E012F5F3F4F47
:101C9000790120E030E0F701408151816281738158
:101CA00084819581A681B781411551056105710532
:101CB000B1F10097A105B10591F1F901F595E7950D
:101CC000F595E795F595E795E00FF11FD080DD0CD0
:101CD000481759076A077B0710F0D08203C08D2D83
:101CE000816080832F5F3F4FF8E0EF0EF11C2832B8
:101CF000310589F6F801248130E04081818190E04E
:101D0000840F911D4281840F911D4381840F911D89
:101D100099272817390719F481E0818B03C0F8014E
:101D2000118A80E0C05CDE4F0FB6F894DEBF0FBEB4
:101D3000CDBFDF91CF911F910F91FF90EF90DF907A
:101D4000CF900895CF92DF92EF92FF920F931F935F
:101D5000CF93DF93EC01162F642F0E94AB0D8823E5
:101D600009F443C08E818B3031F008F43EC08551B8
:101D7000823040F03AC06A8170E080E090E00E94DA
:101D8000FC1424C00A81602F6F7770E080E090E03F
:101D90000E94FE1420E030E040E853E40E948A15DF
:101DA0006B017C016B8170E080E090E00E94FE148A
:101DB0009B01AC01C701B6010E9467142DEC3CECFD
:101DC0004CEC5DE30E948A1507FD9058112389F0C1
:101DD00026E636E646EE5FE30E948A1520E030E014
:101DE00040E052E40E94671404C060E070E080ECC0
:101DF0009FE7DF91CF911F910F91FF90EF90DF90C0
:101E0000CF900895CF92DF92EF92FF92CF93DF931E
:101E1000EC0160E00E94AB0D882379F18E818B305C
:101E200029F158F18551823040F5688170E080E0F9
:101E300090E00E94FC1420E030E040E853E40E946F
:101E40008A156B017C01698170E080E090E00E945E
:101E5000FE149B01AC01C701B6010E9467142DEC72
:101E60003CEC4CEC5DE30E948A150BC0688170E08D
:101E700080E090E00E94FC1404C060E070E080EC20
:101E80009FE7DF91CF91FF90EF90DF90CF90089583
:101E90001F920F920FB60F9211242F933F934F93DF
:101EA0005F936F937F938F939F93AF93BF93EF93C2
:101EB000FF93E0917303F0917403309709F451C0DC
:101EC000868DA685B785958581FF04C08C91892371
:101ED00029F447C08C91892309F043C0A389B489B0
:101EE0009C918589809589238C9386899789019710
:101EF000F1F7208D318DA685B785758558E040E0D6
:101F0000C9010197F1F7842F90E095958795482FA7
:101F10006C91672309F04068515091F7868D81FDDF
:101F200040958091320390E001968F73992720911C
:101F30003103281749F0A0913203B0E0AD5CBC4FEB
:101F40004C938093320303C0868D8160868F828D8F
:101F5000938D0197F1F7A389B4898C919589892B89
:101F60008C93FF91EF91BF91AF919F918F917F9152
:101F70006F915F914F913F912F910F900FBE0F90F6
:101F80001F9018951F920F920FB60F9211242F9346
:101F90003F938F939F93AF93BF93809176039091DC
:101FA0007703A0917803B09179033091750323E012
:101FB000230F2D3720F40196A11DB11D05C026E881
:101FC000230F0296A11DB11D209375038093760304
:101FD00090937703A0937803B093790380917A0369
:101FE00090917B03A0917C03B0917D030196A11D8C
:101FF000B11D80937A0390937B03A0937C03B093ED
:102000007D03BF91AF919F918F913F912F910F9041
:102010000FBE0F901F9018952FB7F894609176031C
:102020007091770380917803909179032FBF089581
:102030003FB7F89480917A0390917B03A0917C0341
:10204000B0917D0326B5A89B05C02F3F19F00196DE
:10205000A11DB11D3FBF6627782F892F9A2F620FD0
:10206000711D811D911D42E0660F771F881F991F0A
:102070004A95D1F708958F929F92AF92BF92CF92D7
:10208000DF92EF92FF926B017C010E9418104B01CE
:102090005C01C114D104E104F104F1F00E94651463
:1020A0000E941810681979098A099B09683E7340D3
:1020B0008105910570F321E0C21AD108E108F10809
:1020C00088EE880E83E0981EA11CB11CC114D104B7
:1020D000E104F10429F7DDCFFF90EF90DF90CF907E
:1020E000BF90AF909F908F9008958230910538F007
:1020F000880F991F880F991F05970197F1F7089589
:10210000789484B5826084BD84B5816084BD85B5D2
:10211000826085BD85B5816085BDEEE6F0E0808199
:1021200081608083E1E8F0E01082808182608083BA
:10213000808181608083E0E8F0E08081816080833D
:10214000E1EBF0E0808184608083E0EBF0E080816F
:1021500081608083EAE7F0E0808184608083808111
:1021600082608083808181608083808180688083B9
:102170001092C1000895833081F028F4813099F0E5
:102180008230A1F008958730A9F08830B9F084300A
:10219000D1F4809180008F7D03C0809180008F7783
:1021A00080938000089584B58F7702C084B58F7DB9
:1021B00084BD08958091B0008F7703C08091B000F6
:1021C0008F7D8093B0000895CF93DF9390E0FC0162
:1021D000E454FF4F2491FC01E053FF4F8491882386
:1021E00049F190E0880F991FFC01E850FF4FA5913D
:1021F000B49182519F4FFC01C591D4919FB7611159
:1022000008C0F8948C91209582238C938881822336
:102210000AC0623051F4F8948C91322F30958323A8
:102220008C938881822B888304C0F8948C91822BB4
:102230008C939FBFDF91CF9108950F931F93CF93FE
:10224000DF931F92CDB7DEB7282F30E0F901E855B4
:10225000FF4F8491F901E454FF4F1491F901E053C9
:10226000FF4F04910023C9F0882321F069830E9465
:10227000BB106981E02FF0E0EE0FFF1FE251FF4F2E
:10228000A591B4919FB7F8948C91611103C01095FA
:10229000812301C0812B8C939FBF0F90DF91CF9141
:1022A0001F910F910895CF93DF93282F30E0F9010C
:1022B000E855FF4F8491F901E454FF4FD491F9019F
:1022C000E053FF4FC491CC2391F081110E94BB10C9
:1022D000EC2FF0E0EE0FFF1FEC51FF4FA591B491F2
:1022E0002C912D2381E090E021F480E002C080E079
:1022F00090E0DF91CF910895FC01818D228D90E0D7
:10230000805C9F4F821B91098F7399270895FC0170
:10231000918D828D981731F0828DE80FF11D858D9A
:1023200090E008958FEF9FEF0895FC01918D828DCD
:10233000981761F0828DDF01A80FB11D5D968C9119
:10234000928D9F5F9F73928F90E008958FEF9FEF24
:10235000089589E193E1892B49F080E090E0892B91
:1023600029F00E94191381110C9400000895FC01BA
:10237000848DDF01A80FB11DA35ABF4F2C91848D0E
:1023800090E001968F739927848FA689B7892C9343
:10239000A089B1898C9180648C93938D848D9813DE
:1023A00006C00288F389E02D80818F7D80830895A7
:1023B000CF93DF93EC01888D8823C9F0EA89FB89EC
:1023C000808185FD05C0A889B9898C9186FD0FC0E3
:1023D0000FB607FCF5CF808185FFF2CFA889B989B8
:1023E0008C9185FFEDCFCE010E94B711E7CFDF9131
:1023F000CF910895CF92DF92FF920F931F93CF93C7
:10240000DF931F92CDB7DEB76C0181E0D6015896FD
:102410008C9358975B969C915B975C968C915C979C
:10242000981307C05096ED91FC915197808185FDDE
:102430002EC0F601038D10E00F5F1F4F0F731127A1
:10244000F02EF601848DF81211C00FB607FCF9CFFB
:10245000D6015096ED91FC915197808185FFF1CF87
:10246000C60169830E94B7116981EBCF838DE80FA4
:10247000F11DE35AFF4F6083D6015B960C935B9787
:102480005296ED91FC915397808180620CC0D601E9
:102490005696ED91FC91579760835096ED91FC9183
:1024A000519780818064808381E090E00F90DF917C
:1024B000CF911F910F91FF90DF90CF900895BF9221
:1024C000CF92DF92EF92FF92CF93DF93EC016A01FC
:1024D0007B01B22EE889F98982E08083411581EE83
:1024E000580761057105A1F060E079E08DE390E0A7
:1024F000A70196010E94ED152150310941095109AA
:102500005695479537952795211580E1380798F01E
:10251000E889F989108260E874E88EE190E0A7010B
:1025200096010E94ED152150310941095109569536
:10253000479537952795EC85FD853083EE85FF859A
:102540002083188EEC89FD89B082EA89FB8980811D
:1025500080618083EA89FB89808188608083EA8941
:10256000FB89808180688083EA89FB8980818F7DF7
:102570008083DF91CF91FF90EF90DF90CF90BF905D
:1025800008951F920F920FB60F9211242F938F93DD
:102590009F93EF93FF93E0918E03F0918F038081DF
:1025A000E0919403F091950382FD12C09081809197
:1025B00097038F5F8F7320919803821751F0E091FA
:1025C0009703F0E0E258FC4F958F8093970301C08A
:1025D0008081FF91EF919F918F912F910F900FBE6E
:1025E0000F901F9018951F920F920FB60F92112403
:1025F0002F933F934F935F936F937F938F939F930B
:10260000AF93BF93EF93FF938EE793E00E94B711D0
:10261000FF91EF91BF91AF919F918F917F916F91BA
:102620005F914F913F912F910F900FBE0F901F9090
:1026300018958EE793E00E947C1121E0892B09F424
:1026400020E0822F0895109281031092800388EE7B
:1026500093E0A0E0B0E08093820390938303A09383
:102660008403B093850386E891E090937F03809381
:102670007E0385EC90E090938B0380938A0384EC37
:1026800090E090938D0380938C0380EC90E0909386
:102690008F0380938E0381EC90E09093910380935D
:1026A000900382EC90E0909393038093920386ECE6
:1026B00090E0909395038093940310929703109267
:1026C00098031092990310929A030895CF92DF9283
:1026D000EF92FF920F931F93CF93DF937C016A01D8
:1026E000EB0100E010E00C151D0571F06991D701B8
:1026F000ED91FC910190F081E02DC7010995892BA6
:1027000019F00F5F1F4FEFCFC801DF91CF911F91DD
:102710000F91FF90EF90DF90CF90089561157105B4
:1027200081F0DB010D900020E9F7AD014150510926
:10273000461B570BDC01ED91FC910280F381E02DEB
:10274000099480E090E008950C948E13DC01ED91E3
:10275000FC910190F081E02D09948F929F92AF92AD
:10276000BF92DF92EF92FF920F931F93CF93DF936D
:10277000CDB7DEB7A1970FB6F894DEBF0FBECDBFC1
:102780007C01F42FD52ECB0119A2223008F42AE0C7
:102790008E010F5D1F4F822E912CA12CB12C6F2F1B
:1027A0007D2DA50194010E94ED15F22FD32ECA01B3
:1027B000015011096A3014F4E0E301C0E7E3E60FC9
:1027C000D801EC93232B242B252B49F7B801C70103
:1027D0000E948E13A1960FB6F894DEBF0FBECDBF38
:1027E000DF91CF911F910F91FF90EF90DF90BF90FD
:1027F000AF909F908F900895CF92DF92EF92FF92CB
:102800000F931F93CF93DF93EC016A017B01211596
:10281000310579F4E881F9810190F081E02D642F90
:10282000DF91CF911F910F91FF90EF90DF90CF90AC
:1028300009942A303105E9F477FF1AC06DE20E944D
:10284000A6138C0144275527BA014C195D096E095E
:102850007F092AE0CE010E94AD13800F911FDF9106
:10286000CF911F910F91FF90EF90DF90CF9008953F
:102870002AE0B701A601CE01DF91CF911F910F9100
:10288000FF90EF90DF90CF900C94AD139A01AB01C5
:10289000662757FD6095762F0C94FC1370E09B0122
:1028A000382BC90108950E94151608950E948010C2
:1028B0000E9455140E945D07C9EAD1E10E949C065E
:1028C0002097E1F30E94A911F9CF08955058BB2732
:1028D000AA270ED0E5C0D6D030F0DBD020F031F4FE
:1028E0009F3F11F41EF4CBC00EF4E095E7FBC1C08E
:1028F000E92FE7D080F3BA176207730784079507BB
:1029000018F071F49EF5FFC00EF4E0950B2EBA2F6F
:10291000A02D0B01B90190010C01CA01A0011124E5
:10292000FF27591B99F0593F50F4503E68F11A1691
:10293000F040A22F232F342F4427585FF3CF469522
:1029400037952795A795F0405395C9F77EF41F1644
:10295000BA0B620B730B840BBAF09150A1F0FF0F0E
:10296000BB1F661F771F881FC2F70EC0BA0F621FFA
:10297000731F841F48F4879577956795B795F795EA
:102980009E3F08F0B3CF9395880F08F09927EE0F7C
:1029900097958795089504D06894B111B5C00895AE
:1029A00098D088F09F5790F0B92F9927B751A0F091
:1029B000D1F0660F771F881F991F1AF0BA95C9F7D3
:1029C00012C0B13081F09FD0B1E008959CC0672F54
:1029D000782F8827B85F39F0B93FCCF38695779583
:1029E0006795B395D9F73EF490958095709561956C
:1029F0007F4F8F4F9F4F0895E89409C097FB3EF497
:102A000090958095709561957F4F8F4F9F4F99233B
:102A1000A9F0F92F96E9BB279395F69587957795B9
:102A20006795B795F111F8CFFAF4BB0F11F460FF79
:102A30001BC06F5F7F4F8F4F9F4F16C0882311F0D1
:102A400096E911C0772321F09EE8872F762F05C0E5
:102A5000662371F096E8862F70E060E02AF09A9580
:102A6000660F771F881FDAF7880F9695879597F975
:102A7000089597F99F6780E870E060E008959FEF00
:102A800080EC089500240A94161617061806090605
:102A9000089500240A9412161306140605060895D4
:102AA000092E0394000C11F4882352F0BB0F40F45C
:102AB000BF2B11F460FF04C06F5F7F4F8F4F9F4F9C
:102AC000089557FD9058440F551F59F05F3F71F01E
:102AD0004795880F97FB991F61F09F3F79F0879585
:102AE0000895121613061406551FF2CF4695F1DF0E
:102AF00008C0161617061806991FF1CF869571059E
:102B0000610508940895E894BB2766277727CB01D1
:102B100097F908950BD0C4CFB5DF28F0BADF18F0CD
:102B2000952309F0A6CFABCF1124EECFCADFA0F3D7
:102B3000959FD1F3950F50E0551F629FF001729F52
:102B4000BB27F00DB11D639FAA27F00DB11DAA1F71
:102B5000649F6627B00DA11D661F829F2227B00DBE
:102B6000A11D621F739FB00DA11D621F839FA00D49
:102B7000611D221F749F3327A00D611D231F849F99
:102B8000600D211D822F762F6A2F11249F575040F0
:102B90008AF0E1F088234AF0EE0FFF1FBB1F661F8B
:102BA000771F881F91505040A9F79E3F510570F044
:102BB00060CFAACF5F3FECF3983EDCF38695779524
:102BC0006795B795F795E7959F5FC1F7FE2B880F3F
:102BD000911D9695879597F90895A1E21A2EAA1B43
:102BE000BB1BFD010DC0AA1FBB1FEE1FFF1FA217BD
:102BF000B307E407F50720F0A21BB30BE40BF50BBA
:102C0000661F771F881F991F1A9469F76095709542
:102C1000809590959B01AC01BD01CF010895EE0F09
:102C2000FF1F0590F491E02D099481E090E0F89465
:102C30000C94EB18AEE0B0E0E0E2F6E10C94C218C0
:102C40000D891E8986E08C831A8309838FEF9FE7A5
:102C50009E838D83AE01475E5F4F6F89788DCE0175
:102C600001960E943C16EF81F885E00FF11F10825B
:102C70002E96E4E00C94DE18ACE0B0E0E2E4F6E17D
:102C80000C94B4187C016B018A01FC011782168236
:102C9000838181FFBDC1CE0101964C01F701938173
:102CA000F60193FD859193FF81916F01882309F4CB
:102CB000ABC1853239F493FD859193FF81916F010A
:102CC000853229F4B70190E00E942418E7CF512CF7
:102CD000312C20E02032A0F48B3269F030F48032C5
:102CE00059F0833269F420612CC08D3239F0803381
:102CF00039F4216026C02260246023C0286021C0EE
:102D000027FD27C030ED380F3A3078F426FF06C093
:102D1000FAE05F9E300D1124532E13C08AE0389ED6
:102D2000300D1124332E20620CC08E3221F426FD8A
:102D30006BC1206406C08C3611F4206802C088364E
:102D400041F4F60193FD859193FF81916F0181110B
:102D5000C1CF982F9F7D9554933028F40C5F1F4F5F
:102D6000FFE3F9830DC0833631F0833771F083358B
:102D700009F05BC022C0F801808189830E5F1F4F7C
:102D800044244394512C540115C03801F2E06F0ED5
:102D9000711CF801A080B18026FF03C0652D70E092
:102DA00002C06FEF7FEFC5012C870E9419182C011C
:102DB00083012C852F77222E17C03801F2E06F0E89
:102DC000711CF801A080B18026FF03C0652D70E062
:102DD00002C06FEF7FEFC5012C870E940E182C01F7
:102DE0002C852068222E830123FC1BC0832D90E0BC
:102DF00048165906B0F4B70180E290E00E9424180A
:102E00003A94F4CFF50127FC859127FE81915F016B
:102E1000B70190E00E94241831103A94F1E04F1A63
:102E200051084114510471F7E5C0843611F0893618
:102E300039F5F80127FF07C0608171818281938194
:102E40000C5F1F4F08C060817181882777FD8095D6
:102E5000982F0E5F1F4F2F76B22E97FF09C09095C7
:102E60008095709561957F4F8F4F9F4F2068B22E50
:102E70002AE030E0A4010E945618A82EA81844C0E9
:102E8000853729F42F7EB22E2AE030E025C0F22FBC
:102E9000F97FBF2E8F36C1F018F4883579F0B4C0B1
:102EA000803719F0883721F0AFC02F2F2061B22E64
:102EB000B4FE0DC08B2D8460B82E09C024FF0AC05B
:102EC0009F2F9660B92E06C028E030E005C020E1B3
:102ED00030E002C020E132E0F801B7FE07C06081B7
:102EE0007181828193810C5F1F4F06C06081718167
:102EF00080E090E00E5F1F4FA4010E945618A82E9C
:102F0000A818FB2DFF77BF2EB6FE0BC02B2D2E7FF2
:102F1000A51450F4B4FE0AC0B2FC08C02B2D2E7EBE
:102F200005C07A2C2B2D03C07A2C01C0752C24FFF0
:102F30000DC0FE01EA0DF11D8081803311F4297E60
:102F400009C022FF06C07394739404C0822F867850
:102F500009F0739423FD13C020FF06C05A2C73148C
:102F600018F4530C5718732C731468F4B70180E2EB
:102F700090E02C870E94241873942C85F5CF73144D
:102F800010F4371801C0312C24FF12C0B70180E3C0
:102F900090E02C870E9424182C8522FF17C021FF67
:102FA00003C088E590E002C088E790E0B7010CC05C
:102FB000822F867859F021FD02C080E201C08BE2A9
:102FC00027FD8DE2B70190E00E942418A51438F483
:102FD000B70180E390E00E9424185A94F7CFAA9496
:102FE000F401EA0DF11D8081B70190E00E942418E0
:102FF000A110F5CF332009F451CEB70180E290E063
:103000000E9424183A94F6CFF7018681978102C076
:103010008FEF9FEF2C96E2E10C94D018FC01059005
:10302000615070400110D8F7809590958E0F9F1FCA
:103030000895FC016150704001900110D8F780950F
:1030400090958E0F9F1F08950F931F93CF93DF933B
:10305000182F092FEB018B8181FD03C08FEF9FEFAC
:1030600020C082FF10C04E815F812C813D814217BC
:1030700053077CF4E881F9819F012F5F3F4F39832B
:103080002883108306C0E885F985812F0995892B4F
:1030900029F72E813F812F5F3F4F3F832E83812F62
:1030A000902FDF91CF911F910F910895FA01AA27D8
:1030B000283051F1203181F1E8946F936E7F6E5F7B
:1030C0007F4F8F4F9F4FAF4FB1E03ED0B4E03CD029
:1030D000670F781F891F9A1FA11D680F791F8A1F0C
:1030E000911DA11D6A0F711D811D911DA11D20D073
:1030F00009F468943F912AE0269F11243019305D2D
:103100003193DEF6CF010895462F4770405D41931D
:10311000B3E00FD0C9F7F6CF462F4F70405D4A336A
:1031200018F0495D31FD4052419302D0A9F7EACF32
:10313000B4E0A6959795879577956795BA95C9F761
:1031400000976105710508959B01AC010A2E069454
:103150005795479537952795BA95C9F7620F731F0D
:10316000841F951FA01D08952F923F924F925F924A
:103170006F927F928F929F92AF92BF92CF92DF9287
:10318000EF92FF920F931F93CF93DF93CDB7DEB7EC
:10319000CA1BDB0B0FB6F894DEBF0FBECDBF099480
:1031A0002A88398848885F846E847D848C849B84D7
:1031B000AA84B984C884DF80EE80FD800C811B81E5
:1031C000AA81B981CE0FD11D0FB6F894DEBF0FBE14
:0A31D000CDBFED010895F894FFCF84
:1031DA0000001B0480000100000004000500060036
:1031EA0007000A000B000C000D0003004100312407
:1031FA00040002000E1C166E080000000000000009
:10320A000000000000000100FFFF25336420253381
:10321A006420253364202533640001020304050673
:10322A000F1000000000ED07C00795079D07B007C3
:10323A00BF0700000000280B6613910B260B270B13
:10324A00531400000000280B6613260D0A0C1E0CEE
:10325A00080D00000000FA1166137C119511871100
:02326A00D81179
:00000001FF
