:100000000C943A000C9400000C9400000C94000036
:100010000C9400000C9400000C9400000C94000060
:100020000C9400000C9400000C9400000C94000050
:100030000C9400000C9400000C9400000C94000040
:100040000C9400000C9400000C9400000C94000030
:100050000C9400001027E80364000A00010000105F
:100060000001100001006F6B650080C0020060019C
:100070006A000000F894EE27ECBBF1E0FBBFEBBF99
:10008000E5BFF8E1F1BDE1BD8DE0A2E0BB27ED9356
:100090008A95E9F780E094E0A0E6ED930197E9F70F
:1000A000ECE6F0E085919591009761F0A591B5910E
:1000B00005901590BF01F00105900D920197E1F7B1
:1000C000FB01F0CFEFE5EDBFE4E0EEBFC0E6D1E02D
:1000D0000C946A00EFEFEBBBEABBE0E0E8BBE7BBE8
:1000E000E5BBE4BBE2BBE1BBE3BFE2BFECBFEFBDFE
:1000F000EEBDEDBDECBDE7BDE6BDEBBDEABDE9BDC6
:10010000E8BDE2BDE5BDE4BDE3BDE5BFE4BFE9BFD9
:10011000EAB9E0E8E8B9E0E0E0BFE6B9EDB9E6BF8A
:10012000A0E10E940A01E0E0EA93A0E00E94C90079
:10013000A6E6B0E00E94F700D898A8EEB3E00E94CF
:100140004601D99AA8EEB3E00E944601ECCFFFCF5A
:10015000AA93E5B3EF70AE2FE881E07FEA2BE5BB11
:100160008BE08A95F1F7AB9A8BE18A95F1F7AB9822
:100170008BE18A95F1F77AC0AA93A881E9DFE8813B
:10018000E295E883A881E4DF88EC90E00197F1F73D
:100190006DC0AA93E881F0E0E05AFE4FE081A981AA
:1001A000AE0FEADF5980488022960895A2E00E94AF
:1001B0003801ACE0E1DFA1E00E943801E0E04E2E22
:1001C0005E2E0895AA93A881AA3011F0571448F022
:1001D000E0E0EA934394A42DDCDFA881AA3009F47F
:1001E00045C05394A99AA881C7DFA9983FC0BA9384
:1001F000AA931A93E981FA813196E983FA833197B8
:10020000E4911E2FE03019F0A12FDCDFF3CF18812D
:1002100023960895AA93E4B3E06FE4BBA39AA19A4E
:10022000A29AAB98A998AA987880E881E058E093C0
:100230006201E881E054E0936301A4E1B0E00E9430
:1002400046010E943E010E943E010E943E01A0E242
:100250007FDF80E991E00197F1F7A8E28DDFA4E06C
:100260008BDFA5E889DFA6E087DFA0DF2196089570
:100270000E94BC00A3E0B0E00C944601A0E30E9401
:10028000A80080E991E00197F1F70895109639F000
:1002900080EA9FE00197F1F7A8951197C9F70895B3
:00000001FF
